{
  "_format": "hh-sol-artifact-1",
  "contractName": "StrategyNFT",
  "sourceName": "contracts/StrategyNFT.sol",
  "abi": [
    {
      "inputs": [],
      "stateMutability": "nonpayable",
      "type": "constructor"
    },
    {
      "inputs": [
        {
          "internalType": "address",
          "name": "sender",
          "type": "address"
        },
        {
          "internalType": "uint256",
          "name": "tokenId",
          "type": "uint256"
        },
        {
          "internalType": "address",
          "name": "owner",
          "type": "address"
        }
      ],
      "name": "ERC721IncorrectOwner",
      "type": "error"
    },
    {
      "inputs": [
        {
          "internalType": "address",
          "name": "operator",
          "type": "address"
        },
        {
          "internalType": "uint256",
          "name": "tokenId",
          "type": "uint256"
        }
      ],
      "name": "ERC721InsufficientApproval",
      "type": "error"
    },
    {
      "inputs": [
        {
          "internalType": "address",
          "name": "approver",
          "type": "address"
        }
      ],
      "name": "ERC721InvalidApprover",
      "type": "error"
    },
    {
      "inputs": [
        {
          "internalType": "address",
          "name": "operator",
          "type": "address"
        }
      ],
      "name": "ERC721InvalidOperator",
      "type": "error"
    },
    {
      "inputs": [
        {
          "internalType": "address",
          "name": "owner",
          "type": "address"
        }
      ],
      "name": "ERC721InvalidOwner",
      "type": "error"
    },
    {
      "inputs": [
        {
          "internalType": "address",
          "name": "receiver",
          "type": "address"
        }
      ],
      "name": "ERC721InvalidReceiver",
      "type": "error"
    },
    {
      "inputs": [
        {
          "internalType": "address",
          "name": "sender",
          "type": "address"
        }
      ],
      "name": "ERC721InvalidSender",
      "type": "error"
    },
    {
      "inputs": [
        {
          "internalType": "uint256",
          "name": "tokenId",
          "type": "uint256"
        }
      ],
      "name": "ERC721NonexistentToken",
      "type": "error"
    },
    {
      "inputs": [
        {
          "internalType": "address",
          "name": "owner",
          "type": "address"
        }
      ],
      "name": "OwnableInvalidOwner",
      "type": "error"
    },
    {
      "inputs": [
        {
          "internalType": "address",
          "name": "account",
          "type": "address"
        }
      ],
      "name": "OwnableUnauthorizedAccount",
      "type": "error"
    },
    {
      "anonymous": false,
      "inputs": [
        {
          "indexed": true,
          "internalType": "address",
          "name": "owner",
          "type": "address"
        },
        {
          "indexed": true,
          "internalType": "address",
          "name": "approved",
          "type": "address"
        },
        {
          "indexed": true,
          "internalType": "uint256",
          "name": "tokenId",
          "type": "uint256"
        }
      ],
      "name": "Approval",
      "type": "event"
    },
    {
      "anonymous": false,
      "inputs": [
        {
          "indexed": true,
          "internalType": "address",
          "name": "owner",
          "type": "address"
        },
        {
          "indexed": true,
          "internalType": "address",
          "name": "operator",
          "type": "address"
        },
        {
          "indexed": false,
          "internalType": "bool",
          "name": "approved",
          "type": "bool"
        }
      ],
      "name": "ApprovalForAll",
      "type": "event"
    },
    {
      "anonymous": false,
      "inputs": [
        {
          "indexed": false,
          "internalType": "uint256",
          "name": "_fromTokenId",
          "type": "uint256"
        },
        {
          "indexed": false,
          "internalType": "uint256",
          "name": "_toTokenId",
          "type": "uint256"
        }
      ],
      "name": "BatchMetadataUpdate",
      "type": "event"
    },
    {
      "anonymous": false,
      "inputs": [
        {
          "indexed": false,
          "internalType": "uint256",
          "name": "_tokenId",
          "type": "uint256"
        }
      ],
      "name": "MetadataUpdate",
      "type": "event"
    },
    {
      "anonymous": false,
      "inputs": [
        {
          "indexed": true,
          "internalType": "address",
          "name": "previousOwner",
          "type": "address"
        },
        {
          "indexed": true,
          "internalType": "address",
          "name": "newOwner",
          "type": "address"
        }
      ],
      "name": "OwnershipTransferred",
      "type": "event"
    },
    {
      "anonymous": false,
      "inputs": [
        {
          "indexed": true,
          "internalType": "uint256",
          "name": "tokenId",
          "type": "uint256"
        },
        {
          "indexed": true,
          "internalType": "address",
          "name": "creator",
          "type": "address"
        },
        {
          "indexed": false,
          "internalType": "bytes32",
          "name": "codeHash",
          "type": "bytes32"
        },
        {
          "indexed": false,
          "internalType": "bytes32",
          "name": "paramsHash",
          "type": "bytes32"
        },
        {
          "indexed": false,
          "internalType": "string",
          "name": "datasetVersion",
          "type": "string"
        },
        {
          "indexed": false,
          "internalType": "string",
          "name": "evalWindow",
          "type": "string"
        },
        {
          "indexed": false,
          "internalType": "string",
          "name": "storageRoot",
          "type": "string"
        }
      ],
      "name": "StrategyRegistered",
      "type": "event"
    },
    {
      "anonymous": false,
      "inputs": [
        {
          "indexed": true,
          "internalType": "address",
          "name": "from",
          "type": "address"
        },
        {
          "indexed": true,
          "internalType": "address",
          "name": "to",
          "type": "address"
        },
        {
          "indexed": true,
          "internalType": "uint256",
          "name": "tokenId",
          "type": "uint256"
        }
      ],
      "name": "Transfer",
      "type": "event"
    },
    {
      "inputs": [
        {
          "internalType": "address",
          "name": "to",
          "type": "address"
        },
        {
          "internalType": "uint256",
          "name": "tokenId",
          "type": "uint256"
        }
      ],
      "name": "approve",
      "outputs": [],
      "stateMutability": "nonpayable",
      "type": "function"
    },
    {
      "inputs": [
        {
          "internalType": "address",
          "name": "owner",
          "type": "address"
        }
      ],
      "name": "balanceOf",
      "outputs": [
        {
          "internalType": "uint256",
          "name": "",
          "type": "uint256"
        }
      ],
      "stateMutability": "view",
      "type": "function"
    },
    {
      "inputs": [
        {
          "internalType": "uint256",
          "name": "tokenId",
          "type": "uint256"
        }
      ],
      "name": "getApproved",
      "outputs": [
        {
          "internalType": "address",
          "name": "",
          "type": "address"
        }
      ],
      "stateMutability": "view",
      "type": "function"
    },
    {
      "inputs": [
        {
          "internalType": "uint256",
          "name": "tokenId",
          "type": "uint256"
        }
      ],
      "name": "getStrategy",
      "outputs": [
        {
          "components": [
            {
              "internalType": "bytes32",
              "name": "codeHash",
              "type": "bytes32"
            },
            {
              "internalType": "bytes32",
              "name": "paramsHash",
              "type": "bytes32"
            },
            {
              "internalType": "string",
              "name": "datasetVersion",
              "type": "string"
            },
            {
              "internalType": "string",
              "name": "evalWindow",
              "type": "string"
            },
            {
              "internalType": "string",
              "name": "storageRoot",
              "type": "string"
            },
            {
              "internalType": "uint256",
              "name": "createdAt",
              "type": "uint256"
            },
            {
              "internalType": "address",
              "name": "creator",
              "type": "address"
            },
            {
              "internalType": "bool",
              "name": "isActive",
              "type": "bool"
            }
          ],
          "internalType": "struct StrategyNFT.Strategy",
          "name": "",
          "type": "tuple"
        }
      ],
      "stateMutability": "view",
      "type": "function"
    },
    {
      "inputs": [
        {
          "internalType": "address",
          "name": "owner",
          "type": "address"
        },
        {
          "internalType": "address",
          "name": "operator",
          "type": "address"
        }
      ],
      "name": "isApprovedForAll",
      "outputs": [
        {
          "internalType": "bool",
          "name": "",
          "type": "bool"
        }
      ],
      "stateMutability": "view",
      "type": "function"
    },
    {
      "inputs": [],
      "name": "name",
      "outputs": [
        {
          "internalType": "string",
          "name": "",
          "type": "string"
        }
      ],
      "stateMutability": "view",
      "type": "function"
    },
    {
      "inputs": [],
      "name": "owner",
      "outputs": [
        {
          "internalType": "address",
          "name": "",
          "type": "address"
        }
      ],
      "stateMutability": "view",
      "type": "function"
    },
    {
      "inputs": [
        {
          "internalType": "uint256",
          "name": "tokenId",
          "type": "uint256"
        }
      ],
      "name": "ownerOf",
      "outputs": [
        {
          "internalType": "address",
          "name": "",
          "type": "address"
        }
      ],
      "stateMutability": "view",
      "type": "function"
    },
    {
      "inputs": [
        {
          "internalType": "bytes32",
          "name": "_codeHash",
          "type": "bytes32"
        },
        {
          "internalType": "bytes32",
          "name": "_paramsHash",
          "type": "bytes32"
        },
        {
          "internalType": "string",
          "name": "_datasetVersion",
          "type": "string"
        },
        {
          "internalType": "string",
          "name": "_evalWindow",
          "type": "string"
        },
        {
          "internalType": "string",
          "name": "_storageRoot",
          "type": "string"
        },
        {
          "internalType": "string",
          "name": "_tokenURI",
          "type": "string"
        }
      ],
      "name": "registerStrategy",
      "outputs": [
        {
          "internalType": "uint256",
          "name": "",
          "type": "uint256"
        }
      ],
      "stateMutability": "nonpayable",
      "type": "function"
    },
    {
      "inputs": [],
      "name": "renounceOwnership",
      "outputs": [],
      "stateMutability": "nonpayable",
      "type": "function"
    },
    {
      "inputs": [
        {
          "internalType": "address",
          "name": "from",
          "type": "address"
        },
        {
          "internalType": "address",
          "name": "to",
          "type": "address"
        },
        {
          "internalType": "uint256",
          "name": "tokenId",
          "type": "uint256"
        }
      ],
      "name": "safeTransferFrom",
      "outputs": [],
      "stateMutability": "nonpayable",
      "type": "function"
    },
    {
      "inputs": [
        {
          "internalType": "address",
          "name": "from",
          "type": "address"
        },
        {
          "internalType": "address",
          "name": "to",
          "type": "address"
        },
        {
          "internalType": "uint256",
          "name": "tokenId",
          "type": "uint256"
        },
        {
          "internalType": "bytes",
          "name": "data",
          "type": "bytes"
        }
      ],
      "name": "safeTransferFrom",
      "outputs": [],
      "stateMutability": "nonpayable",
      "type": "function"
    },
    {
      "inputs": [
        {
          "internalType": "address",
          "name": "operator",
          "type": "address"
        },
        {
          "internalType": "bool",
          "name": "approved",
          "type": "bool"
        }
      ],
      "name": "setApprovalForAll",
      "outputs": [],
      "stateMutability": "nonpayable",
      "type": "function"
    },
    {
      "inputs": [
        {
          "internalType": "uint256",
          "name": "",
          "type": "uint256"
        }
      ],
      "name": "strategies",
      "outputs": [
        {
          "internalType": "bytes32",
          "name": "codeHash",
          "type": "bytes32"
        },
        {
          "internalType": "bytes32",
          "name": "paramsHash",
          "type": "bytes32"
        },
        {
          "internalType": "string",
          "name": "datasetVersion",
          "type": "string"
        },
        {
          "internalType": "string",
          "name": "evalWindow",
          "type": "string"
        },
        {
          "internalType": "string",
          "name": "storageRoot",
          "type": "string"
        },
        {
          "internalType": "uint256",
          "name": "createdAt",
          "type": "uint256"
        },
        {
          "internalType": "address",
          "name": "creator",
          "type": "address"
        },
        {
          "internalType": "bool",
          "name": "isActive",
          "type": "bool"
        }
      ],
      "stateMutability": "view",
      "type": "function"
    },
    {
      "inputs": [
        {
          "internalType": "bytes4",
          "name": "interfaceId",
          "type": "bytes4"
        }
      ],
      "name": "supportsInterface",
      "outputs": [
        {
          "internalType": "bool",
          "name": "",
          "type": "bool"
        }
      ],
      "stateMutability": "view",
      "type": "function"
    },
    {
      "inputs": [],
      "name": "symbol",
      "outputs": [
        {
          "internalType": "string",
          "name": "",
          "type": "string"
        }
      ],
      "stateMutability": "view",
      "type": "function"
    },
    {
      "inputs": [
        {
          "internalType": "uint256",
          "name": "tokenId",
          "type": "uint256"
        }
      ],
      "name": "tokenURI",
      "outputs": [
        {
          "internalType": "string",
          "name": "",
          "type": "string"
        }
      ],
      "stateMutability": "view",
      "type": "function"
    },
    {
      "inputs": [],
      "name": "totalStrategies",
      "outputs": [
        {
          "internalType": "uint256",
          "name": "",
          "type": "uint256"
        }
      ],
      "stateMutability": "view",
      "type": "function"
    },
    {
      "inputs": [
        {
          "internalType": "address",
          "name": "from",
          "type": "address"
        },
        {
          "internalType": "address",
          "name": "to",
          "type": "address"
        },
        {
          "internalType": "uint256",
          "name": "tokenId",
          "type": "uint256"
        }
      ],
      "name": "transferFrom",
      "outputs": [],
      "stateMutability": "nonpayable",
      "type": "function"
    },
    {
      "inputs": [
        {
          "internalType": "address",
          "name": "newOwner",
          "type": "address"
        }
      ],
      "name": "transferOwnership",
      "outputs": [],
      "stateMutability": "nonpayable",
      "type": "function"
    }
  ],
  "bytecode": "0x60806040523480156200001157600080fd5b50336040518060400160405280601381526020017f41492054726164696e6720537472617465677900000000000000000000000000815250604051806040016040528060048152602001634149545360e01b8152508160009081620000779190620001c1565b506001620000868282620001c1565b5050506001600160a01b038116620000b857604051631e4fbdf760e01b81526000600482015260240160405180910390fd5b620000c381620000ca565b506200028d565b600780546001600160a01b038381166001600160a01b0319831681179093556040519116919082907f8be0079c531659141344cd1fd0a4f28419497f9722a3daafe3b4186f6b6457e090600090a35050565b634e487b7160e01b600052604160045260246000fd5b600181811c908216806200014757607f821691505b6020821081036200016857634e487b7160e01b600052602260045260246000fd5b50919050565b601f821115620001bc57600081815260208120601f850160051c81016020861015620001975750805b601f850160051c820191505b81811015620001b857828155600101620001a3565b5050505b505050565b81516001600160401b03811115620001dd57620001dd6200011c565b620001f581620001ee845462000132565b846200016e565b602080601f8311600181146200022d5760008415620002145750858301515b600019600386901b1c1916600185901b178555620001b8565b600085815260208120601f198616915b828110156200025e578886015182559484019460019091019084016200023d565b50858210156200027d5787850151600019600388901b60f8161c191681555b5050505050600190811b01905550565b611c60806200029d6000396000f3fe608060405234801561001057600080fd5b506004361061012c5760003560e01c80638da5cb5b116100ad578063cfc0cc3411610071578063cfc0cc3414610275578063d574ea3d14610295578063e985e9c5146102bc578063f2fde38b146102cf578063f96d7b80146102e257600080fd5b80638da5cb5b1461022357806395d89b4114610234578063a22cb4651461023c578063b88d4fde1461024f578063c87b56dd1461026257600080fd5b806323b872dd116100f457806323b872dd146101cf57806342842e0e146101e25780636352211e146101f557806370a0823114610208578063715018a61461021b57600080fd5b806301ffc9a71461013157806306fdde0314610159578063081812fc1461016e578063095ea7b31461019957806312a9e2b3146101ae575b600080fd5b61014461013f366004611542565b6102ea565b60405190151581526020015b60405180910390f35b6101616102fb565b60405161015091906115af565b61018161017c3660046115c2565b61038d565b6040516001600160a01b039091168152602001610150565b6101ac6101a73660046115f7565b6103b6565b005b6101c16101bc3660046116cd565b6103c5565b604051908152602001610150565b6101ac6101dd36600461178c565b610522565b6101ac6101f036600461178c565b6105b2565b6101816102033660046115c2565b6105d2565b6101c16102163660046117c8565b6105dd565b6101ac610625565b6007546001600160a01b0316610181565b610161610639565b6101ac61024a3660046117e3565b610648565b6101ac61025d36600461181f565b610653565b6101616102703660046115c2565b61066b565b6102886102833660046115c2565b610676565b604051610150919061189b565b6102a86102a33660046115c2565b610936565b604051610150989796959493929190611948565b6101446102ca3660046119bc565b610b1e565b6101ac6102dd3660046117c8565b610b4c565b6008546101c1565b60006102f582610b8a565b92915050565b60606000805461030a906119ef565b80601f0160208091040260200160405190810160405280929190818152602001828054610336906119ef565b80156103835780601f1061035857610100808354040283529160200191610383565b820191906000526020600020905b81548152906001019060200180831161036657829003601f168201915b5050505050905090565b600061039882610baf565b506000828152600460205260409020546001600160a01b03166102f5565b6103c1828233610be8565b5050565b60006001600860008282546103da9190611a29565b90915550506008546103ec3382610bf5565b6103f68184610c0f565b604080516101008101825289815260208082018a81528284018a8152606084018a9052608084018990524260a08501523360c0850152600160e085018190526000878152600990945294909220835181559051938101939093555190919060028201906104639082611a90565b50606082015160038201906104789082611a90565b506080820151600482019061048d9082611a90565b5060a0820151600582015560c08201516006909101805460e0909301511515600160a01b026001600160a81b03199093166001600160a01b0390921691909117919091179055604051339082907fbdb63644e911c9cb39b9e50741c739681088dcd0defde218e1b2518ca8b6de3c9061050f908c908c908c908c908c90611b50565b60405180910390a3979650505050505050565b6001600160a01b03821661055157604051633250574960e11b8152600060048201526024015b60405180910390fd5b600061055e838333610c5f565b9050836001600160a01b0316816001600160a01b0316146105ac576040516364283d7b60e01b81526001600160a01b0380861660048301526024820184905282166044820152606401610548565b50505050565b6105cd83838360405180602001604052806000815250610653565b505050565b60006102f582610baf565b60006001600160a01b038216610609576040516322718ad960e21b815260006004820152602401610548565b506001600160a01b031660009081526003602052604090205490565b61062d610d58565b6106376000610d85565b565b60606001805461030a906119ef565b6103c1338383610dd7565b61065e848484610522565b6105ac3385858585610e76565b60606102f582610fa1565b6040805161010081018252600080825260208083018290526060838501819052808401819052608084015260a0830182905260c0830182905260e083018290528482526002905291909120546001600160a01b03166107175760405162461bcd60e51b815260206004820152601760248201527f537472617465677920646f6573206e6f742065786973740000000000000000006044820152606401610548565b6009600083815260200190815260200160002060405180610100016040529081600082015481526020016001820154815260200160028201805461075a906119ef565b80601f0160208091040260200160405190810160405280929190818152602001828054610786906119ef565b80156107d35780601f106107a8576101008083540402835291602001916107d3565b820191906000526020600020905b8154815290600101906020018083116107b657829003601f168201915b505050505081526020016003820180546107ec906119ef565b80601f0160208091040260200160405190810160405280929190818152602001828054610818906119ef565b80156108655780601f1061083a57610100808354040283529160200191610865565b820191906000526020600020905b81548152906001019060200180831161084857829003601f168201915b5050505050815260200160048201805461087e906119ef565b80601f01602080910402602001604051908101604052809291908181526020018280546108aa906119ef565b80156108f75780601f106108cc576101008083540402835291602001916108f7565b820191906000526020600020905b8154815290600101906020018083116108da57829003601f168201915b5050509183525050600582015460208201526006909101546001600160a01b0381166040830152600160a01b900460ff16151560609091015292915050565b6009602052600090815260409020805460018201546002830180549293919261095e906119ef565b80601f016020809104026020016040519081016040528092919081815260200182805461098a906119ef565b80156109d75780601f106109ac576101008083540402835291602001916109d7565b820191906000526020600020905b8154815290600101906020018083116109ba57829003601f168201915b5050505050908060030180546109ec906119ef565b80601f0160208091040260200160405190810160405280929190818152602001828054610a18906119ef565b8015610a655780601f10610a3a57610100808354040283529160200191610a65565b820191906000526020600020905b815481529060010190602001808311610a4857829003601f168201915b505050505090806004018054610a7a906119ef565b80601f0160208091040260200160405190810160405280929190818152602001828054610aa6906119ef565b8015610af35780601f10610ac857610100808354040283529160200191610af3565b820191906000526020600020905b815481529060010190602001808311610ad657829003601f168201915b5050505060058301546006909301549192916001600160a01b0381169150600160a01b900460ff1688565b6001600160a01b03918216600090815260056020908152604080832093909416825291909152205460ff1690565b610b54610d58565b6001600160a01b038116610b7e57604051631e4fbdf760e01b815260006004820152602401610548565b610b8781610d85565b50565b60006001600160e01b03198216632483248360e11b14806102f557506102f5826110b2565b6000818152600260205260408120546001600160a01b0316806102f557604051637e27328960e01b815260048101849052602401610548565b6105cd8383836001611102565b6103c1828260405180602001604052806000815250611208565b6000828152600660205260409020610c278282611a90565b506040518281527ff8e1a15aba9398e019f0b49df1a4fde98ee17ae345cb5f6b5e2c27f5033e8ce79060200160405180910390a15050565b6000828152600260205260408120546001600160a01b0390811690831615610c8c57610c8c818486611220565b6001600160a01b03811615610cca57610ca9600085600080611102565b6001600160a01b038116600090815260036020526040902080546000190190555b6001600160a01b03851615610cf9576001600160a01b0385166000908152600360205260409020805460010190555b60008481526002602052604080822080546001600160a01b0319166001600160a01b0389811691821790925591518793918516917fddf252ad1be2c89b69c2b068fc378daa952ba7f163c4a11628f55a4df523b3ef91a4949350505050565b6007546001600160a01b031633146106375760405163118cdaa760e01b8152336004820152602401610548565b600780546001600160a01b038381166001600160a01b0319831681179093556040519116919082907f8be0079c531659141344cd1fd0a4f28419497f9722a3daafe3b4186f6b6457e090600090a35050565b6001600160a01b038216610e0957604051630b61174360e31b81526001600160a01b0383166004820152602401610548565b6001600160a01b03838116600081815260056020908152604080832094871680845294825291829020805460ff191686151590811790915591519182527f17307eab39ab6107e8899845ad3d59bd9653f200f220920489ca2b5937696c31910160405180910390a3505050565b6001600160a01b0383163b15610f9a57604051630a85bd0160e11b81526001600160a01b0384169063150b7a0290610eb8908890889087908790600401611ba1565b6020604051808303816000875af1925050508015610ef3575060408051601f3d908101601f19168201909252610ef091810190611bde565b60015b610f5c573d808015610f21576040519150601f19603f3d011682016040523d82523d6000602084013e610f26565b606091505b508051600003610f5457604051633250574960e11b81526001600160a01b0385166004820152602401610548565b805160208201fd5b6001600160e01b03198116630a85bd0160e11b14610f9857604051633250574960e11b81526001600160a01b0385166004820152602401610548565b505b5050505050565b6060610fac82610baf565b5060008281526006602052604081208054610fc6906119ef565b80601f0160208091040260200160405190810160405280929190818152602001828054610ff2906119ef565b801561103f5780601f106110145761010080835404028352916020019161103f565b820191906000526020600020905b81548152906001019060200180831161102257829003601f168201915b50505050509050600061105d60408051602081019091526000815290565b9050805160000361106f575092915050565b8151156110a1578082604051602001611089929190611bfb565b60405160208183030381529060405292505050919050565b6110aa84611284565b949350505050565b60006001600160e01b031982166380ac58cd60e01b14806110e357506001600160e01b03198216635b5e139f60e01b145b806102f557506301ffc9a760e01b6001600160e01b03198316146102f5565b808061111657506001600160a01b03821615155b156111d857600061112684610baf565b90506001600160a01b038316158015906111525750826001600160a01b0316816001600160a01b031614155b801561116557506111638184610b1e565b155b1561118e5760405163a9fbf51f60e01b81526001600160a01b0384166004820152602401610548565b81156111d65783856001600160a01b0316826001600160a01b03167f8c5be1e5ebec7d5bd14f71427d1e84f3dd0314c0f7b2291e5b200ac8c7c3b92560405160405180910390a45b505b5050600090815260046020526040902080546001600160a01b0319166001600160a01b0392909216919091179055565b61121283836112f9565b6105cd336000858585610e76565b61122b83838361135e565b6105cd576001600160a01b03831661125957604051637e27328960e01b815260048101829052602401610548565b60405163177e802f60e01b81526001600160a01b038316600482015260248101829052604401610548565b606061128f82610baf565b5060006112a760408051602081019091526000815290565b905060008151116112c757604051806020016040528060008152506112f2565b806112d1846113c1565b6040516020016112e2929190611bfb565b6040516020818303038152906040525b9392505050565b6001600160a01b03821661132357604051633250574960e11b815260006004820152602401610548565b600061133183836000610c5f565b90506001600160a01b038116156105cd576040516339e3563760e11b815260006004820152602401610548565b60006001600160a01b038316158015906110aa5750826001600160a01b0316846001600160a01b0316148061139857506113988484610b1e565b806110aa5750506000908152600460205260409020546001600160a01b03908116911614919050565b606060006113ce83611454565b600101905060008167ffffffffffffffff8111156113ee576113ee611621565b6040519080825280601f01601f191660200182016040528015611418576020820181803683370190505b5090508181016020015b600019016f181899199a1a9b1b9c1cb0b131b232b360811b600a86061a8153600a850494508461142257509392505050565b60008072184f03e93ff9f4daa797ed6e38ed64bf6a1f0160401b83106114935772184f03e93ff9f4daa797ed6e38ed64bf6a1f0160401b830492506040015b6d04ee2d6d415b85acef810000000083106114bf576d04ee2d6d415b85acef8100000000830492506020015b662386f26fc1000083106114dd57662386f26fc10000830492506010015b6305f5e10083106114f5576305f5e100830492506008015b612710831061150957612710830492506004015b6064831061151b576064830492506002015b600a83106102f55760010192915050565b6001600160e01b031981168114610b8757600080fd5b60006020828403121561155457600080fd5b81356112f28161152c565b60005b8381101561157a578181015183820152602001611562565b50506000910152565b6000815180845261159b81602086016020860161155f565b601f01601f19169290920160200192915050565b6020815260006112f26020830184611583565b6000602082840312156115d457600080fd5b5035919050565b80356001600160a01b03811681146115f257600080fd5b919050565b6000806040838503121561160a57600080fd5b611613836115db565b946020939093013593505050565b634e487b7160e01b600052604160045260246000fd5b600067ffffffffffffffff8084111561165257611652611621565b604051601f8501601f19908116603f0116810190828211818310171561167a5761167a611621565b8160405280935085815286868601111561169357600080fd5b858560208301376000602087830101525050509392505050565b600082601f8301126116be57600080fd5b6112f283833560208501611637565b60008060008060008060c087890312156116e657600080fd5b8635955060208701359450604087013567ffffffffffffffff8082111561170c57600080fd5b6117188a838b016116ad565b9550606089013591508082111561172e57600080fd5b61173a8a838b016116ad565b9450608089013591508082111561175057600080fd5b61175c8a838b016116ad565b935060a089013591508082111561177257600080fd5b5061177f89828a016116ad565b9150509295509295509295565b6000806000606084860312156117a157600080fd5b6117aa846115db565b92506117b8602085016115db565b9150604084013590509250925092565b6000602082840312156117da57600080fd5b6112f2826115db565b600080604083850312156117f657600080fd5b6117ff836115db565b91506020830135801515811461181457600080fd5b809150509250929050565b6000806000806080858703121561183557600080fd5b61183e856115db565b935061184c602086016115db565b925060408501359150606085013567ffffffffffffffff81111561186f57600080fd5b8501601f8101871361188057600080fd5b61188f87823560208401611637565b91505092959194509250565b602081528151602082015260208201516040820152600060408301516101008060608501526118ce610120850183611583565b91506060850151601f19808685030160808701526118ec8483611583565b935060808701519150808685030160a08701525061190a8382611583565b92505060a085015160c085015260c085015161193160e08601826001600160a01b03169052565b5060e0850151801515858301525090949350505050565b60006101008a83528960208401528060408401526119688184018a611583565b9050828103606084015261197c8189611583565b905082810360808401526119908188611583565b60a084019690965250506001600160a01b039290921660c0830152151560e09091015295945050505050565b600080604083850312156119cf57600080fd5b6119d8836115db565b91506119e6602084016115db565b90509250929050565b600181811c90821680611a0357607f821691505b602082108103611a2357634e487b7160e01b600052602260045260246000fd5b50919050565b808201808211156102f557634e487b7160e01b600052601160045260246000fd5b601f8211156105cd57600081815260208120601f850160051c81016020861015611a715750805b601f850160051c820191505b81811015610f9857828155600101611a7d565b815167ffffffffffffffff811115611aaa57611aaa611621565b611abe81611ab884546119ef565b84611a4a565b602080601f831160018114611af35760008415611adb5750858301515b600019600386901b1c1916600185901b178555610f98565b600085815260208120601f198616915b82811015611b2257888601518255948401946001909101908401611b03565b5085821015611b405787850151600019600388901b60f8161c191681555b5050505050600190811b01905550565b85815284602082015260a060408201526000611b6f60a0830186611583565b8281036060840152611b818186611583565b90508281036080840152611b958185611583565b98975050505050505050565b6001600160a01b0385811682528416602082015260408101839052608060608201819052600090611bd490830184611583565b9695505050505050565b600060208284031215611bf057600080fd5b81516112f28161152c565b60008351611c0d81846020880161155f565b835190830190611c2181836020880161155f565b0194935050505056fea2646970667358221220ad01542a2314aafd02792d6e762c3882ece9a5b5f350e45b51e0681e93e56f4664736f6c63430008140033",
  "linkReferences": {},
  "deployedLinkReferences": {}
}