{
  "_format": "hh-sol-artifact-1",
  "contractName": "TradingArena",
  "sourceName": "contracts/TradingArena.sol",
  "abi": [
    {
      "inputs": [
        {
          "internalType": "address",
          "name": "_strategyNFT",
          "type": "address"
        }
      ],
      "stateMutability": "nonpayable",
      "type": "constructor"
    },
    {
      "inputs": [
        {
          "internalType": "address",
          "name": "owner",
          "type": "address"
        }
      ],
      "name": "OwnableInvalidOwner",
      "type": "error"
    },
    {
      "inputs": [
        {
          "internalType": "address",
          "name": "account",
          "type": "address"
        }
      ],
      "name": "OwnableUnauthorizedAccount",
      "type": "error"
    },
    {
      "anonymous": false,
      "inputs": [
        {
          "indexed": true,
          "internalType": "address",
          "name": "previousOwner",
          "type": "address"
        },
        {
          "indexed": true,
          "internalType": "address",
          "name": "newOwner",
          "type": "address"
        }
      ],
      "name": "OwnershipTransferred",
      "type": "event"
    },
    {
      "anonymous": false,
      "inputs": [
        {
          "indexed": true,
          "internalType": "uint256",
          "name": "roundId",
          "type": "uint256"
        },
        {
          "indexed": true,
          "internalType": "uint256",
          "name": "strategyId",
          "type": "uint256"
        },
        {
          "indexed": false,
          "internalType": "int256",
          "name": "pnl",
          "type": "int256"
        }
      ],
      "name": "ResultSubmitted",
      "type": "event"
    },
    {
      "anonymous": false,
      "inputs": [
        {
          "indexed": true,
          "internalType": "uint256",
          "name": "roundId",
          "type": "uint256"
        }
      ],
      "name": "RoundFinalized",
      "type": "event"
    },
    {
      "anonymous": false,
      "inputs": [
        {
          "indexed": true,
          "internalType": "uint256",
          "name": "roundId",
          "type": "uint256"
        },
        {
          "indexed": false,
          "internalType": "bytes32",
          "name": "marketDataRoot",
          "type": "bytes32"
        }
      ],
      "name": "RoundStarted",
      "type": "event"
    },
    {
      "inputs": [],
      "name": "currentRound",
      "outputs": [
        {
          "internalType": "uint256",
          "name": "",
          "type": "uint256"
        }
      ],
      "stateMutability": "view",
      "type": "function"
    },
    {
      "inputs": [],
      "name": "finalizeRound",
      "outputs": [],
      "stateMutability": "nonpayable",
      "type": "function"
    },
    {
      "inputs": [
        {
          "internalType": "uint256",
          "name": "roundId",
          "type": "uint256"
        },
        {
          "internalType": "uint256",
          "name": "limit",
          "type": "uint256"
        }
      ],
      "name": "getLeaderboardByRound",
      "outputs": [
        {
          "internalType": "uint256[]",
          "name": "strategyIds",
          "type": "uint256[]"
        },
        {
          "internalType": "int256[]",
          "name": "pnls",
          "type": "int256[]"
        }
      ],
      "stateMutability": "view",
      "type": "function"
    },
    {
      "inputs": [
        {
          "internalType": "uint256",
          "name": "_roundId",
          "type": "uint256"
        },
        {
          "internalType": "uint256",
          "name": "_strategyId",
          "type": "uint256"
        }
      ],
      "name": "getResult",
      "outputs": [
        {
          "components": [
            {
              "internalType": "uint256",
              "name": "strategyId",
              "type": "uint256"
            },
            {
              "internalType": "int256",
              "name": "pnl",
              "type": "int256"
            },
            {
              "internalType": "uint256",
              "name": "totalTrades",
              "type": "uint256"
            },
            {
              "internalType": "uint256",
              "name": "winningTrades",
              "type": "uint256"
            },
            {
              "internalType": "bytes32",
              "name": "backtestLogRoot",
              "type": "bytes32"
            },
            {
              "internalType": "bytes32",
              "name": "executionLogHash",
              "type": "bytes32"
            },
            {
              "internalType": "bytes32",
              "name": "codeHash",
              "type": "bytes32"
            },
            {
              "internalType": "bytes32",
              "name": "paramsHash",
              "type": "bytes32"
            },
            {
              "internalType": "bytes32",
              "name": "datasetVersionHash",
              "type": "bytes32"
            },
            {
              "internalType": "bytes32",
              "name": "evalWindowHash",
              "type": "bytes32"
            },
            {
              "internalType": "bytes32",
              "name": "marketDataRoot",
              "type": "bytes32"
            },
            {
              "internalType": "uint256",
              "name": "timestamp",
              "type": "uint256"
            },
            {
              "internalType": "uint256",
              "name": "roundId",
              "type": "uint256"
            }
          ],
          "internalType": "struct TradingArena.TradingResult",
          "name": "",
          "type": "tuple"
        }
      ],
      "stateMutability": "view",
      "type": "function"
    },
    {
      "inputs": [],
      "name": "owner",
      "outputs": [
        {
          "internalType": "address",
          "name": "",
          "type": "address"
        }
      ],
      "stateMutability": "view",
      "type": "function"
    },
    {
      "inputs": [],
      "name": "renounceOwnership",
      "outputs": [],
      "stateMutability": "nonpayable",
      "type": "function"
    },
    {
      "inputs": [
        {
          "internalType": "uint256",
          "name": "",
          "type": "uint256"
        },
        {
          "internalType": "uint256",
          "name": "",
          "type": "uint256"
        }
      ],
      "name": "resultSubmitted",
      "outputs": [
        {
          "internalType": "bool",
          "name": "",
          "type": "bool"
        }
      ],
      "stateMutability": "view",
      "type": "function"
    },
    {
      "inputs": [
        {
          "internalType": "uint256",
          "name": "",
          "type": "uint256"
        },
        {
          "internalType": "uint256",
          "name": "",
          "type": "uint256"
        }
      ],
      "name": "results",
      "outputs": [
        {
          "internalType": "uint256",
          "name": "strategyId",
          "type": "uint256"
        },
        {
          "internalType": "int256",
          "name": "pnl",
          "type": "int256"
        },
        {
          "internalType": "uint256",
          "name": "totalTrades",
          "type": "uint256"
        },
        {
          "internalType": "uint256",
          "name": "winningTrades",
          "type": "uint256"
        },
        {
          "internalType": "bytes32",
          "name": "backtestLogRoot",
          "type": "bytes32"
        },
        {
          "internalType": "bytes32",
          "name": "executionLogHash",
          "type": "bytes32"
        },
        {
          "internalType": "bytes32",
          "name": "codeHash",
          "type": "bytes32"
        },
        {
          "internalType": "bytes32",
          "name": "paramsHash",
          "type": "bytes32"
        },
        {
          "internalType": "bytes32",
          "name": "datasetVersionHash",
          "type": "bytes32"
        },
        {
          "internalType": "bytes32",
          "name": "evalWindowHash",
          "type": "bytes32"
        },
        {
          "internalType": "bytes32",
          "name": "marketDataRoot",
          "type": "bytes32"
        },
        {
          "internalType": "uint256",
          "name": "timestamp",
          "type": "uint256"
        },
        {
          "internalType": "uint256",
          "name": "roundId",
          "type": "uint256"
        }
      ],
      "stateMutability": "view",
      "type": "function"
    },
    {
      "inputs": [
        {
          "internalType": "uint256",
          "name": "",
          "type": "uint256"
        },
        {
          "internalType": "uint256",
          "name": "",
          "type": "uint256"
        }
      ],
      "name": "roundParticipants",
      "outputs": [
        {
          "internalType": "uint256",
          "name": "",
          "type": "uint256"
        }
      ],
      "stateMutability": "view",
      "type": "function"
    },
    {
      "inputs": [
        {
          "internalType": "uint256",
          "name": "",
          "type": "uint256"
        }
      ],
      "name": "rounds",
      "outputs": [
        {
          "internalType": "uint256",
          "name": "startTime",
          "type": "uint256"
        },
        {
          "internalType": "uint256",
          "name": "endTime",
          "type": "uint256"
        },
        {
          "internalType": "bytes32",
          "name": "marketDataRoot",
          "type": "bytes32"
        },
        {
          "internalType": "bytes32",
          "name": "datasetVersionHash",
          "type": "bytes32"
        },
        {
          "internalType": "bytes32",
          "name": "evalWindowHash",
          "type": "bytes32"
        },
        {
          "internalType": "bool",
          "name": "finalized",
          "type": "bool"
        }
      ],
      "stateMutability": "view",
      "type": "function"
    },
    {
      "inputs": [
        {
          "internalType": "bytes32",
          "name": "_marketDataRoot",
          "type": "bytes32"
        },
        {
          "internalType": "bytes32",
          "name": "_datasetVersionHash",
          "type": "bytes32"
        },
        {
          "internalType": "bytes32",
          "name": "_evalWindowHash",
          "type": "bytes32"
        }
      ],
      "name": "startNewRound",
      "outputs": [],
      "stateMutability": "nonpayable",
      "type": "function"
    },
    {
      "inputs": [],
      "name": "strategyNFT",
      "outputs": [
        {
          "internalType": "contract StrategyNFT",
          "name": "",
          "type": "address"
        }
      ],
      "stateMutability": "view",
      "type": "function"
    },
    {
      "inputs": [
        {
          "internalType": "uint256",
          "name": "_strategyId",
          "type": "uint256"
        },
        {
          "internalType": "int256",
          "name": "_pnl",
          "type": "int256"
        },
        {
          "internalType": "uint256",
          "name": "_totalTrades",
          "type": "uint256"
        },
        {
          "internalType": "uint256",
          "name": "_winningTrades",
          "type": "uint256"
        },
        {
          "internalType": "bytes32",
          "name": "_backtestLogRoot",
          "type": "bytes32"
        },
        {
          "internalType": "bytes32",
          "name": "_executionLogHash",
          "type": "bytes32"
        }
      ],
      "name": "submitResult",
      "outputs": [],
      "stateMutability": "nonpayable",
      "type": "function"
    },
    {
      "inputs": [
        {
          "internalType": "uint256",
          "name": "",
          "type": "uint256"
        }
      ],
      "name": "totalPnL",
      "outputs": [
        {
          "internalType": "int256",
          "name": "",
          "type": "int256"
        }
      ],
      "stateMutability": "view",
      "type": "function"
    },
    {
      "inputs": [
        {
          "internalType": "address",
          "name": "newOwner",
          "type": "address"
        }
      ],
      "name": "transferOwnership",
      "outputs": [],
      "stateMutability": "nonpayable",
      "type": "function"
    },
    {
      "inputs": [
        {
          "internalType": "uint256",
          "name": "_roundId",
          "type": "uint256"
        },
        {
          "internalType": "uint256",
          "name": "_strategyId",
          "type": "uint256"
        },
        {
          "internalType": "bytes32",
          "name": "_expectedLogHash",
          "type": "bytes32"
        },
        {
          "internalType": "bytes32",
          "name": "_expectedCodeHash",
          "type": "bytes32"
        },
        {
          "internalType": "bytes32",
          "name": "_expectedParamsHash",
          "type": "bytes32"
        },
        {
          "internalType": "bytes32",
          "name": "_expectedDatasetVersionHash",
          "type": "bytes32"
        },
        {
          "internalType": "bytes32",
          "name": "_expectedEvalWindowHash",
          "type": "bytes32"
        },
        {
          "internalType": "bytes32",
          "name": "_expectedMarketDataRoot",
          "type": "bytes32"
        }
      ],
      "name": "verifyResult",
      "outputs": [
        {
          "internalType": "bool",
          "name": "",
          "type": "bool"
        }
      ],
      "stateMutability": "view",
      "type": "function"
    }
  ],
  "bytecode": "0x608060405234801561000f575f5ffd5b5060405161174238038061174283398101604081905261002e916100d1565b338061005357604051631e4fbdf760e01b81525f600482015260240160405180910390fd5b61005c81610082565b50600180546001600160a01b0319166001600160a01b03929092169190911790556100fe565b5f80546001600160a01b038381166001600160a01b0319831681178455604051919092169283917f8be0079c531659141344cd1fd0a4f28419497f9722a3daafe3b4186f6b6457e09190a35050565b5f602082840312156100e1575f5ffd5b81516001600160a01b03811681146100f7575f5ffd5b9392505050565b6116378061010b5f395ff3fe608060405234801561000f575f5ffd5b50600436106100fb575f3560e01c8063949f80c511610093578063d8e4f72011610063578063d8e4f720146103e1578063d9cf6fb91461040e578063de26eadf14610421578063f2fde38b14610434575f5ffd5b8063949f80c514610223578063a5279448146102d2578063d6a45aa5146102f1578063d70c6f4e14610304575f5ffd5b80637989933a116100ce5780637989933a1461014e5780638a19c8bc146101715780638c65c81f146101885780638da5cb5b146101ff575f5ffd5b80630f68122d146100ff5780631e8203251461012957806358d0f76a14610133578063715018a614610146575b5f5ffd5b61011261010d3660046111c7565b610447565b6040516101209291906111e7565b60405180910390f35b61013161082e565b005b610131610141366004611267565b61093a565b610131610db6565b61016161015c3660046112a6565b610dc9565b6040519015158152602001610120565b61017a60025481565b604051908152602001610120565b6101d06101963660046112f6565b600360208190525f918252604090912080546001820154600283015493830154600484015460059094015492949193919290919060ff1686565b6040805196875260208701959095529385019290925260608401526080830152151560a082015260c001610120565b5f546001600160a01b03165b6040516001600160a01b039091168152602001610120565b6102366102313660046111c7565b610ed0565b60405161012091905f6101a082019050825182526020830151602083015260408301516040830152606083015160608301526080830151608083015260a083015160a083015260c083015160c083015260e083015160e083015261010083015161010083015261012083015161012083015261014083015161014083015261016083015161016083015261018083015161018083015292915050565b61017a6102e03660046112f6565b60066020525f908152604090205481565b60015461020b906001600160a01b031681565b61037f6103123660046111c7565b6004602052815f5260405f20602052805f5260405f205f9150915050805f01549080600101549080600201549080600301549080600401549080600501549080600601549080600701549080600801549080600901549080600a01549080600b01549080600c015490508d565b604080519d8e5260208e019c909c529a8c019990995260608b019790975260808a019590955260a089019390935260c088019190915260e08701526101008601526101208501526101408401526101608301526101808201526101a001610120565b6101616103ef3660046111c7565b600760209081525f928352604080842090915290825290205460ff1681565b61013161041c36600461130d565b610fdd565b61017a61042f3660046111c7565b6110e4565b61013161044236600461134a565b61110f565b5f828152600560205260409020546060908190801580610465575083155b15610488575050604080515f808252602082019081528183019092529150610827565b5f8482106104965784610498565b815b90505f8267ffffffffffffffff8111156104b4576104b461136c565b6040519080825280602002602001820160405280156104dd578160200160208202803683370190505b5090505f8367ffffffffffffffff8111156104fa576104fa61136c565b604051908082528060200260200182016040528015610523578160200160208202803683370190505b5090505f5b848110156105bc575f89815260056020526040812080548390811061054f5761054f611380565b905f5260205f20015490508084838151811061056d5761056d611380565b6020908102919091018101919091525f8b8152600482526040808220848352909252206001015483518490849081106105a8576105a8611380565b602090810291909101015250600101610528565b505f5b8481101561071557805f6105d48260016113a8565b90505b86811015610625578382815181106105f1576105f1611380565b602002602001015184828151811061060b5761060b611380565b6020026020010151131561061d578091505b6001016105d7565b5081811461070c5782818151811061063f5761063f611380565b602002602001015183838151811061065957610659611380565b602002602001015184848151811061067357610673611380565b6020026020010185848151811061068c5761068c611380565b60200260200101828152508281525050508381815181106106af576106af611380565b60200260200101518483815181106106c9576106c9611380565b60200260200101518584815181106106e3576106e3611380565b602002602001018684815181106106fc576106fc611380565b6020908102919091010191909152525b506001016105bf565b508267ffffffffffffffff81111561072f5761072f61136c565b604051908082528060200260200182016040528015610758578160200160208202803683370190505b5095508267ffffffffffffffff8111156107745761077461136c565b60405190808252806020026020018201604052801561079d578160200160208202803683370190505b5094505f5b83811015610821578281815181106107bc576107bc611380565b60200260200101518782815181106107d6576107d6611380565b6020026020010181815250508181815181106107f4576107f4611380565b602002602001015186828151811061080e5761080e611380565b60209081029190910101526001016107a2565b50505050505b9250929050565b61083661114c565b6002545f9081526003602052604090205461088a5760405162461bcd60e51b815260206004820152600f60248201526e139bc81858dd1a5d99481c9bdd5b99608a1b60448201526064015b60405180910390fd5b6002545f9081526003602052604090206005015460ff16156108e25760405162461bcd60e51b8152602060048201526011602482015270105b1c9958591e48199a5b985b1a5e9959607a1b6044820152606401610881565b600280545f908152600360205260408082204260019182015583548352818320600501805460ff19169091179055915491517fd49620ec6474d72a2f05dd60f5ab59ad0d2d9d29090cb3b81defc30db3d510c39190a2565b6002545f908152600360205260409020546109895760405162461bcd60e51b815260206004820152600f60248201526e139bc81858dd1a5d99481c9bdd5b99608a1b6044820152606401610881565b6002545f9081526003602052604090206005015460ff16156109df5760405162461bcd60e51b815260206004820152600f60248201526e149bdd5b9908199a5b985b1a5e9959608a1b6044820152606401610881565b6001546040516331a9108f60e11b81526004810188905233916001600160a01b031690636352211e90602401602060405180830381865afa158015610a26573d5f5f3e3d5ffd5b505050506040513d601f19601f82011682018060405250810190610a4a91906113cb565b6001600160a01b031614610a965760405162461bcd60e51b815260206004820152601360248201527227b7363c9039ba3930ba32b3bc9037bbb732b960691b6044820152606401610881565b6002545f90815260076020908152604080832089845290915290205460ff1615610b025760405162461bcd60e51b815260206004820152601860248201527f526573756c7420616c7265616479207375626d697474656400000000000000006044820152606401610881565b6001546040516333f0330d60e21b8152600481018890525f916001600160a01b03169063cfc0cc34906024015f60405180830381865afa158015610b48573d5f5f3e3d5ffd5b505050506040513d5f823e601f3d908101601f19168201604052610b6f91908101906114aa565b90505f60035f60025481526020019081526020015f206040518060c00160405290815f820154815260200160018201548152602001600282015481526020016003820154815260200160048201548152602001600582015f9054906101000a900460ff1615151515815250509050604051806101a00160405280898152602001888152602001878152602001868152602001858152602001848152602001835f015181526020018360200151815260200182606001518152602001826080015181526020018260400151815260200142815260200160025481525060045f60025481526020019081526020015f205f8a81526020019081526020015f205f820151815f01556020820151816001015560408201518160020155606082015181600301556080820151816004015560a0820151816005015560c0820151816006015560e082015181600701556101008201518160080155610120820151816009015561014082015181600a015561016082015181600b015561018082015181600c015590505060055f60025481526020019081526020015f2088908060018154018082558091505060019003905f5260205f20015f90919091909150558660065f8a81526020019081526020015f205f828254610d4b91906115da565b9091555050600280545f9081526007602090815260408083208c8452825291829020805460ff19166001179055915490518981528a927f5dc445e82d56bc6a88c65c6e01f52f0f7455f54c3969647be6a8ec66b2aa184c910160405180910390a35050505050505050565b610dbe61114c565b610dc75f611178565b565b5f8881526004602081815260408084208b8552825280842081516101a0810183528154815260018201549381019390935260028101549183019190915260038101546060830152918201546080820152600582015460a08201819052600683015460c0830152600783015460e083015260088301546101008301526009830154610120830152600a830154610140830152600b830154610160830152600c909201546101808201529088148015610e835750868160c00151145b8015610e925750858160e00151145b8015610ea2575084816101000151145b8015610eb2575083816101200151145b8015610ec2575082816101400151145b9a9950505050505050505050565b610f2e604051806101a001604052805f81526020015f81526020015f81526020015f81526020015f81526020015f81526020015f81526020015f81526020015f81526020015f81526020015f81526020015f81526020015f81525090565b505f82815260046020818152604080842085855282529283902083516101a0810185528154815260018201549281019290925260028101549382019390935260038301546060820152908201546080820152600582015460a0820152600682015460c0820152600782015460e082015260088201546101008201526009820154610120820152600a820154610140820152600b820154610160820152600c909101546101808201525b92915050565b610fe561114c565b8261101f5760405162461bcd60e51b815260206004820152600a602482015269195b5c1d1e481c9bdbdd60b21b6044820152606401610881565b600160025f82825461103191906113a8565b90915550506040805160c0810182524281525f6020808301828152838501888152606085018881526080860188815260a087018681526002805488526003808852978a902098518955945160018901559251878501559051948601949094559251600485015591516005909301805460ff1916931515939093179092555491518581527f5ec5de68e24ce5d492a93782e5e7defb83239ddfe638bbfb80fb174194dadc47910160405180910390a2505050565b6005602052815f5260405f2081815481106110fd575f80fd5b905f5260205f20015f91509150505481565b61111761114c565b6001600160a01b03811661114057604051631e4fbdf760e01b81525f6004820152602401610881565b61114981611178565b50565b5f546001600160a01b03163314610dc75760405163118cdaa760e01b8152336004820152602401610881565b5f80546001600160a01b038381166001600160a01b0319831681178455604051919092169283917f8be0079c531659141344cd1fd0a4f28419497f9722a3daafe3b4186f6b6457e09190a35050565b5f5f604083850312156111d8575f5ffd5b50508035926020909101359150565b604080825283519082018190525f9060208501906060840190835b81811015611220578351835260209384019390920191600101611202565b5050838103602080860191909152855180835291810192508501905f5b8181101561125b57825184526020938401939092019160010161123d565b50919695505050505050565b5f5f5f5f5f5f60c0878903121561127c575f5ffd5b505084359660208601359650604086013595606081013595506080810135945060a0013592509050565b5f5f5f5f5f5f5f5f610100898b0312156112be575f5ffd5b505086359860208801359850604088013597606081013597506080810135965060a0810135955060c0810135945060e0013592509050565b5f60208284031215611306575f5ffd5b5035919050565b5f5f5f6060848603121561131f575f5ffd5b505081359360208301359350604090920135919050565b6001600160a01b0381168114611149575f5ffd5b5f6020828403121561135a575f5ffd5b813561136581611336565b9392505050565b634e487b7160e01b5f52604160045260245ffd5b634e487b7160e01b5f52603260045260245ffd5b634e487b7160e01b5f52601160045260245ffd5b80820180821115610fd757610fd7611394565b80516113c681611336565b919050565b5f602082840312156113db575f5ffd5b815161136581611336565b604051610120810167ffffffffffffffff8111828210171561140a5761140a61136c565b60405290565b5f82601f83011261141f575f5ffd5b815167ffffffffffffffff8111156114395761143961136c565b604051601f8201601f19908116603f0116810167ffffffffffffffff811182821017156114685761146861136c565b60405281815283820160200185101561147f575f5ffd5b8160208501602083015e5f918101602001919091529392505050565b805180151581146113c6575f5ffd5b5f602082840312156114ba575f5ffd5b815167ffffffffffffffff8111156114d0575f5ffd5b820161012081850312156114e2575f5ffd5b6114ea6113e6565b8151815260208083015190820152604082015167ffffffffffffffff811115611511575f5ffd5b61151d86828501611410565b604083015250606082015167ffffffffffffffff81111561153c575f5ffd5b61154886828501611410565b606083015250608082015167ffffffffffffffff811115611567575f5ffd5b61157386828501611410565b60808301525060a082015167ffffffffffffffff811115611592575f5ffd5b61159e86828501611410565b60a08301525060c082810151908201526115ba60e083016113bb565b60e08201526115cc610100830161149b565b610100820152949350505050565b8082018281125f8312801582168215821617156115f9576115f9611394565b50509291505056fea26469706673582212207e9164c13a5dcefcb47e068d65144d520532498e5d9c940c9a7f6a352777896164736f6c634300081c0033",
  "linkReferences": {},
  "deployedLinkReferences": {}
}