{
  "_format": "hh-sol-artifact-1",
  "contractName": "TradingArena",
  "sourceName": "contracts/TradingArena.sol",
  "abi": [
    {
      "inputs": [
        {
          "internalType": "address",
          "name": "_strategyNFT",
          "type": "address"
        }
      ],
      "stateMutability": "nonpayable",
      "type": "constructor"
    },
    {
      "anonymous": false,
      "inputs": [
        {
          "indexed": true,
          "internalType": "uint256",
          "name": "roundId",
          "type": "uint256"
        },
        {
          "indexed": true,
          "internalType": "uint256",
          "name": "strategyId",
          "type": "uint256"
        },
        {
          "indexed": false,
          "internalType": "int256",
          "name": "pnl",
          "type": "int256"
        }
      ],
      "name": "ResultSubmitted",
      "type": "event"
    },
    {
      "anonymous": false,
      "inputs": [
        {
          "indexed": true,
          "internalType": "uint256",
          "name": "roundId",
          "type": "uint256"
        }
      ],
      "name": "RoundFinalized",
      "type": "event"
    },
    {
      "anonymous": false,
      "inputs": [
        {
          "indexed": true,
          "internalType": "uint256",
          "name": "roundId",
          "type": "uint256"
        },
        {
          "indexed": false,
          "internalType": "bytes32",
          "name": "marketDataHash",
          "type": "bytes32"
        }
      ],
      "name": "RoundStarted",
      "type": "event"
    },
    {
      "inputs": [],
      "name": "currentRound",
      "outputs": [
        {
          "internalType": "uint256",
          "name": "",
          "type": "uint256"
        }
      ],
      "stateMutability": "view",
      "type": "function"
    },
    {
      "inputs": [],
      "name": "finalizeRound",
      "outputs": [],
      "stateMutability": "nonpayable",
      "type": "function"
    },
    {
      "inputs": [
        {
          "internalType": "uint256",
          "name": "limit",
          "type": "uint256"
        }
      ],
      "name": "getLeaderboard",
      "outputs": [
        {
          "internalType": "uint256[]",
          "name": "strategyIds",
          "type": "uint256[]"
        },
        {
          "internalType": "int256[]",
          "name": "pnls",
          "type": "int256[]"
        }
      ],
      "stateMutability": "view",
      "type": "function"
    },
    {
      "inputs": [
        {
          "internalType": "uint256",
          "name": "_roundId",
          "type": "uint256"
        },
        {
          "internalType": "uint256",
          "name": "_strategyId",
          "type": "uint256"
        }
      ],
      "name": "getResult",
      "outputs": [
        {
          "components": [
            {
              "internalType": "uint256",
              "name": "strategyId",
              "type": "uint256"
            },
            {
              "internalType": "int256",
              "name": "pnl",
              "type": "int256"
            },
            {
              "internalType": "uint256",
              "name": "totalTrades",
              "type": "uint256"
            },
            {
              "internalType": "uint256",
              "name": "winningTrades",
              "type": "uint256"
            },
            {
              "internalType": "bytes32",
              "name": "executionLogHash",
              "type": "bytes32"
            },
            {
              "internalType": "bytes32",
              "name": "codeHash",
              "type": "bytes32"
            },
            {
              "internalType": "bytes32",
              "name": "paramsHash",
              "type": "bytes32"
            },
            {
              "internalType": "bytes32",
              "name": "datasetVersionHash",
              "type": "bytes32"
            },
            {
              "internalType": "bytes32",
              "name": "evalWindowHash",
              "type": "bytes32"
            },
            {
              "internalType": "bytes32",
              "name": "marketDataHash",
              "type": "bytes32"
            },
            {
              "internalType": "uint256",
              "name": "timestamp",
              "type": "uint256"
            },
            {
              "internalType": "uint256",
              "name": "roundId",
              "type": "uint256"
            }
          ],
          "internalType": "struct TradingArena.TradingResult",
          "name": "",
          "type": "tuple"
        }
      ],
      "stateMutability": "view",
      "type": "function"
    },
    {
      "inputs": [
        {
          "internalType": "uint256",
          "name": "",
          "type": "uint256"
        },
        {
          "internalType": "uint256",
          "name": "",
          "type": "uint256"
        }
      ],
      "name": "resultSubmitted",
      "outputs": [
        {
          "internalType": "bool",
          "name": "",
          "type": "bool"
        }
      ],
      "stateMutability": "view",
      "type": "function"
    },
    {
      "inputs": [
        {
          "internalType": "uint256",
          "name": "",
          "type": "uint256"
        },
        {
          "internalType": "uint256",
          "name": "",
          "type": "uint256"
        }
      ],
      "name": "results",
      "outputs": [
        {
          "internalType": "uint256",
          "name": "strategyId",
          "type": "uint256"
        },
        {
          "internalType": "int256",
          "name": "pnl",
          "type": "int256"
        },
        {
          "internalType": "uint256",
          "name": "totalTrades",
          "type": "uint256"
        },
        {
          "internalType": "uint256",
          "name": "winningTrades",
          "type": "uint256"
        },
        {
          "internalType": "bytes32",
          "name": "executionLogHash",
          "type": "bytes32"
        },
        {
          "internalType": "bytes32",
          "name": "codeHash",
          "type": "bytes32"
        },
        {
          "internalType": "bytes32",
          "name": "paramsHash",
          "type": "bytes32"
        },
        {
          "internalType": "bytes32",
          "name": "datasetVersionHash",
          "type": "bytes32"
        },
        {
          "internalType": "bytes32",
          "name": "evalWindowHash",
          "type": "bytes32"
        },
        {
          "internalType": "bytes32",
          "name": "marketDataHash",
          "type": "bytes32"
        },
        {
          "internalType": "uint256",
          "name": "timestamp",
          "type": "uint256"
        },
        {
          "internalType": "uint256",
          "name": "roundId",
          "type": "uint256"
        }
      ],
      "stateMutability": "view",
      "type": "function"
    },
    {
      "inputs": [
        {
          "internalType": "uint256",
          "name": "",
          "type": "uint256"
        },
        {
          "internalType": "uint256",
          "name": "",
          "type": "uint256"
        }
      ],
      "name": "roundParticipants",
      "outputs": [
        {
          "internalType": "uint256",
          "name": "",
          "type": "uint256"
        }
      ],
      "stateMutability": "view",
      "type": "function"
    },
    {
      "inputs": [
        {
          "internalType": "uint256",
          "name": "",
          "type": "uint256"
        }
      ],
      "name": "rounds",
      "outputs": [
        {
          "internalType": "uint256",
          "name": "startTime",
          "type": "uint256"
        },
        {
          "internalType": "uint256",
          "name": "endTime",
          "type": "uint256"
        },
        {
          "internalType": "bytes32",
          "name": "marketDataHash",
          "type": "bytes32"
        },
        {
          "internalType": "bool",
          "name": "finalized",
          "type": "bool"
        }
      ],
      "stateMutability": "view",
      "type": "function"
    },
    {
      "inputs": [
        {
          "internalType": "bytes32",
          "name": "_marketDataHash",
          "type": "bytes32"
        }
      ],
      "name": "startNewRound",
      "outputs": [],
      "stateMutability": "nonpayable",
      "type": "function"
    },
    {
      "inputs": [],
      "name": "strategyNFT",
      "outputs": [
        {
          "internalType": "contract StrategyNFT",
          "name": "",
          "type": "address"
        }
      ],
      "stateMutability": "view",
      "type": "function"
    },
    {
      "inputs": [
        {
          "internalType": "uint256",
          "name": "_strategyId",
          "type": "uint256"
        },
        {
          "internalType": "int256",
          "name": "_pnl",
          "type": "int256"
        },
        {
          "internalType": "uint256",
          "name": "_totalTrades",
          "type": "uint256"
        },
        {
          "internalType": "uint256",
          "name": "_winningTrades",
          "type": "uint256"
        },
        {
          "internalType": "bytes32",
          "name": "_executionLogHash",
          "type": "bytes32"
        }
      ],
      "name": "submitResult",
      "outputs": [],
      "stateMutability": "nonpayable",
      "type": "function"
    },
    {
      "inputs": [
        {
          "internalType": "uint256",
          "name": "",
          "type": "uint256"
        }
      ],
      "name": "totalPnL",
      "outputs": [
        {
          "internalType": "int256",
          "name": "",
          "type": "int256"
        }
      ],
      "stateMutability": "view",
      "type": "function"
    },
    {
      "inputs": [
        {
          "internalType": "uint256",
          "name": "_roundId",
          "type": "uint256"
        },
        {
          "internalType": "uint256",
          "name": "_strategyId",
          "type": "uint256"
        },
        {
          "internalType": "bytes32",
          "name": "_expectedLogHash",
          "type": "bytes32"
        },
        {
          "internalType": "bytes32",
          "name": "_expectedCodeHash",
          "type": "bytes32"
        },
        {
          "internalType": "bytes32",
          "name": "_expectedParamsHash",
          "type": "bytes32"
        },
        {
          "internalType": "bytes32",
          "name": "_expectedDatasetVersionHash",
          "type": "bytes32"
        },
        {
          "internalType": "bytes32",
          "name": "_expectedEvalWindowHash",
          "type": "bytes32"
        },
        {
          "internalType": "bytes32",
          "name": "_expectedMarketDataHash",
          "type": "bytes32"
        }
      ],
      "name": "verifyResult",
      "outputs": [
        {
          "internalType": "bool",
          "name": "",
          "type": "bool"
        }
      ],
      "stateMutability": "view",
      "type": "function"
    }
  ],
  "bytecode": "0x608060405234801561001057600080fd5b5060405161152438038061152483398101604081905261002f91610054565b600080546001600160a01b0319166001600160a01b0392909216919091179055610084565b60006020828403121561006657600080fd5b81516001600160a01b038116811461007d57600080fd5b9392505050565b611491806100936000396000f3fe608060405234801561001057600080fd5b50600436106100cf5760003560e01c8063a34b46fe1161008c578063d6a45aa511610066578063d6a45aa51461027b578063d70c6f4e146102a6578063d8e4f7201461037a578063de26eadf146103a857600080fd5b8063a34b46fe14610227578063a527944814610248578063bb7eeed61461026857600080fd5b80631e820325146100d457806366264187146100de5780637989933a146100f15780638a19c8bc146101195780638c65c81f14610130578063949f80c51461018c575b600080fd5b6100dc6103bb565b005b6100dc6100ec366004611042565b6104bf565b6101046100ff36600461105b565b610567565b60405190151581526020015b60405180910390f35b61012260015481565b604051908152602001610110565b61016a61013e366004611042565b600260208190526000918252604090912080546001820154928201546003909201549092919060ff1684565b6040805194855260208501939093529183015215156060820152608001610110565b61019f61019a3660046110b0565b610663565b6040516101109190815181526020808301519082015260408083015190820152606080830151908201526080808301519082015260a0808301519082015260c0808301519082015260e0808301519082015261010080830151908201526101208083015190820152610140808301519082015261016091820151918101919091526101800190565b61023a610235366004611042565b610769565b6040516101109291906110d2565b610122610256366004611042565b60056020526000908152604090205481565b6100dc61027636600461114d565b610bc7565b60005461028e906001600160a01b031681565b6040516001600160a01b039091168152602001610110565b6103216102b43660046110b0565b60036020528160005260406000206020528060005260406000206000915091505080600001549080600101549080600201549080600301549080600401549080600501549080600601549080600701549080600801549080600901549080600a01549080600b015490508c565b604080519c8d5260208d019b909b52998b019890985260608a0196909652608089019490945260a088019290925260c087015260e086015261010085015261012084015261014083015261016082015261018001610110565b6101046103883660046110b0565b600660209081526000928352604080842090915290825290205460ff1681565b6101226103b63660046110b0565b611011565b6001546000908152600260205260409020546104105760405162461bcd60e51b815260206004820152600f60248201526e139bc81858dd1a5d99481c9bdd5b99608a1b60448201526064015b60405180910390fd5b60015460009081526002602052604090206003015460ff16156104695760405162461bcd60e51b8152602060048201526011602482015270105b1c9958591e48199a5b985b1a5e9959607a1b6044820152606401610407565b60018054600090815260026020526040808220429084015582548252808220600301805460ff191684179055915491517fd49620ec6474d72a2f05dd60f5ab59ad0d2d9d29090cb3b81defc30db3d510c39190a2565b60018060008282546104d1919061119e565b90915550506040805160808101825242815260006020808301828152838501868152606085018481526001805486526002808652958890209651875592518684015590519385019390935591516003909301805460ff1916931515939093179092555491518381527f5ec5de68e24ce5d492a93782e5e7defb83239ddfe638bbfb80fb174194dadc47910160405180910390a250565b60008881526003602081815260408084208b8552825280842081516101808101835281548152600182015493810193909352600281015491830191909152918201546060820152600482015460808201819052600583015460a0830152600683015460c0830152600783015460e083015260088301546101008301526009830154610120830152600a830154610140830152600b9092015461016082015290881480156106175750868160a00151145b80156106265750858160c00151145b80156106355750848160e00151145b8015610645575083816101000151145b8015610655575082816101200151145b9a9950505050505050505050565b6040805161018081018252600080825260208201819052918101829052606081018290526080810182905260a0810182905260c0810182905260e081018290526101008101829052610120810182905261014081018290526101608101919091525060008281526003602081815260408084208585528252928390208351610180810185528154815260018201549281019290925260028101549382019390935290820154606082015260048201546080820152600582015460a0820152600682015460c0820152600782015460e082015260088201546101008201526009820154610120820152600a820154610140820152600b909101546101608201525b92915050565b60608060008060009054906101000a90046001600160a01b03166001600160a01b031663f96d7b806040518163ffffffff1660e01b8152600401602060405180830381865afa1580156107c0573d6000803e3d6000fd5b505050506040513d601f19601f820116820180604052508101906107e491906111b1565b90508015806107f1575083155b1561081657505060408051600080825260208201908152818301909252939092509050565b60008482106108255784610827565b815b905060008267ffffffffffffffff811115610844576108446111ca565b60405190808252806020026020018201604052801561086d578160200160208202803683370190505b50905060008367ffffffffffffffff81111561088b5761088b6111ca565b6040519080825280602002602001820160405280156108b4578160200160208202803683370190505b50905060005b84811015610937576108cd81600161119e565b8382815181106108df576108df6111e0565b6020908102919091010152600560006108f983600161119e565b81526020019081526020016000205482828151811061091a5761091a6111e0565b60209081029190910101528061092f816111f6565b9150506108ba565b5060005b84811015610aa65780600061095182600161119e565b90505b868110156109ac5783828151811061096e5761096e6111e0565b6020026020010151848281518110610988576109886111e0565b6020026020010151131561099a578091505b806109a4816111f6565b915050610954565b50818114610a93578281815181106109c6576109c66111e0565b60200260200101518383815181106109e0576109e06111e0565b60200260200101518484815181106109fa576109fa6111e0565b60200260200101858481518110610a1357610a136111e0565b6020026020010182815250828152505050838181518110610a3657610a366111e0565b6020026020010151848381518110610a5057610a506111e0565b6020026020010151858481518110610a6a57610a6a6111e0565b60200260200101868481518110610a8357610a836111e0565b6020908102919091010191909152525b5080610a9e816111f6565b91505061093b565b508267ffffffffffffffff811115610ac057610ac06111ca565b604051908082528060200260200182016040528015610ae9578160200160208202803683370190505b5095508267ffffffffffffffff811115610b0557610b056111ca565b604051908082528060200260200182016040528015610b2e578160200160208202803683370190505b50945060005b83811015610bbd57828181518110610b4e57610b4e6111e0565b6020026020010151878281518110610b6857610b686111e0565b602002602001018181525050818181518110610b8657610b866111e0565b6020026020010151868281518110610ba057610ba06111e0565b602090810291909101015280610bb5816111f6565b915050610b34565b5050505050915091565b600154600090815260026020526040902054610c175760405162461bcd60e51b815260206004820152600f60248201526e139bc81858dd1a5d99481c9bdd5b99608a1b6044820152606401610407565b60015460009081526002602052604090206003015460ff1615610c6e5760405162461bcd60e51b815260206004820152600f60248201526e149bdd5b9908199a5b985b1a5e9959608a1b6044820152606401610407565b6000546040516331a9108f60e11b81526004810187905233916001600160a01b031690636352211e90602401602060405180830381865afa158015610cb7573d6000803e3d6000fd5b505050506040513d601f19601f82011682018060405250810190610cdb919061122b565b6001600160a01b031614610d275760405162461bcd60e51b815260206004820152601360248201527227b7363c9039ba3930ba32b3bc9037bbb732b960691b6044820152606401610407565b600154600090815260066020908152604080832088845290915290205460ff1615610d945760405162461bcd60e51b815260206004820152601860248201527f526573756c7420616c7265616479207375626d697474656400000000000000006044820152606401610407565b600080546040516333f0330d60e21b8152600481018890526001600160a01b039091169063cfc0cc3490602401600060405180830381865afa158015610dde573d6000803e3d6000fd5b505050506040513d6000823e601f3d908101601f19168201604052610e06919081019061133d565b9050600081604001518051906020012090506000826060015180519060200120905060006002600060015481526020019081526020016000206002015490506040518061018001604052808a8152602001898152602001888152602001878152602001868152602001856000015181526020018560200151815260200184815260200183815260200182815260200142815260200160015481525060036000600154815260200190815260200160002060008b8152602001908152602001600020600082015181600001556020820151816001015560408201518160020155606082015181600301556080820151816004015560a0820151816005015560c0820151816006015560e082015181600701556101008201518160080155610120820151816009015561014082015181600a015561016082015181600b015590505060046000600154815260200190815260200160002089908060018154018082558091505060019003906000526020600020016000909190919091505587600560008b81526020019081526020016000206000828254610fa59190611433565b90915550506001805460009081526006602090815260408083208d8452825291829020805460ff191684179055915490518a81528b927f5dc445e82d56bc6a88c65c6e01f52f0f7455f54c3969647be6a8ec66b2aa184c910160405180910390a3505050505050505050565b6004602052816000526040600020818154811061102d57600080fd5b90600052602060002001600091509150505481565b60006020828403121561105457600080fd5b5035919050565b600080600080600080600080610100898b03121561107857600080fd5b505086359860208801359850604088013597606081013597506080810135965060a0810135955060c0810135945060e0013592509050565b600080604083850312156110c357600080fd5b50508035926020909101359150565b604080825283519082018190526000906020906060840190828701845b8281101561110b578151845292840192908401906001016110ef565b5050508381038285015284518082528583019183019060005b8181101561114057835183529284019291840191600101611124565b5090979650505050505050565b600080600080600060a0868803121561116557600080fd5b505083359560208501359550604085013594606081013594506080013592509050565b634e487b7160e01b600052601160045260246000fd5b8082018082111561076357610763611188565b6000602082840312156111c357600080fd5b5051919050565b634e487b7160e01b600052604160045260246000fd5b634e487b7160e01b600052603260045260246000fd5b60006001820161120857611208611188565b5060010190565b80516001600160a01b038116811461122657600080fd5b919050565b60006020828403121561123d57600080fd5b6112468261120f565b9392505050565b604051610100810167ffffffffffffffff81118282101715611271576112716111ca565b60405290565b604051601f8201601f1916810167ffffffffffffffff811182821017156112a0576112a06111ca565b604052919050565b600082601f8301126112b957600080fd5b815167ffffffffffffffff8111156112d3576112d36111ca565b60206112e7601f8301601f19168201611277565b82815285828487010111156112fb57600080fd5b60005b838110156113195785810183015182820184015282016112fe565b506000928101909101919091529392505050565b8051801515811461122657600080fd5b60006020828403121561134f57600080fd5b815167ffffffffffffffff8082111561136757600080fd5b90830190610100828603121561137c57600080fd5b61138461124d565b82518152602083015160208201526040830151828111156113a457600080fd5b6113b0878286016112a8565b6040830152506060830151828111156113c857600080fd5b6113d4878286016112a8565b6060830152506080830151828111156113ec57600080fd5b6113f8878286016112a8565b60808301525060a083015160a082015261141460c0840161120f565b60c082015261142560e0840161132d565b60e082015295945050505050565b808201828112600083128015821682158216171561145357611453611188565b50509291505056fea264697066735822122089f76bec6dc8474c7834e4348ea10251f6ca0754a0a5cc758b9c3ca62273924e64736f6c63430008140033",
  "linkReferences": {},
  "deployedLinkReferences": {}
}